{
  "_format": "hh-sol-artifact-1",
  "contractName": "ElysiumToken",
  "sourceName": "contracts/ElysiumToken.sol",
  "abi": [
    {
      "inputs": [
        {
          "internalType": "string",
          "name": "name",
          "type": "string"
        },
        {
          "internalType": "string",
          "name": "symbol",
          "type": "string"
        },
        {
          "internalType": "address",
          "name": "owner",
          "type": "address"
        },
        {
          "internalType": "uint256",
          "name": "royalty",
          "type": "uint256"
        },
        {
          "internalType": "address",
          "name": "royaltyRecipient",
          "type": "address"
        }
      ],
      "stateMutability": "nonpayable",
      "type": "constructor"
    },
    {
      "inputs": [],
      "name": "ERC721EnumerableForbiddenBatchMint",
      "type": "error"
    },
    {
      "inputs": [
        {
          "internalType": "address",
          "name": "sender",
          "type": "address"
        },
        {
          "internalType": "uint256",
          "name": "tokenId",
          "type": "uint256"
        },
        {
          "internalType": "address",
          "name": "owner",
          "type": "address"
        }
      ],
      "name": "ERC721IncorrectOwner",
      "type": "error"
    },
    {
      "inputs": [
        {
          "internalType": "address",
          "name": "operator",
          "type": "address"
        },
        {
          "internalType": "uint256",
          "name": "tokenId",
          "type": "uint256"
        }
      ],
      "name": "ERC721InsufficientApproval",
      "type": "error"
    },
    {
      "inputs": [
        {
          "internalType": "address",
          "name": "approver",
          "type": "address"
        }
      ],
      "name": "ERC721InvalidApprover",
      "type": "error"
    },
    {
      "inputs": [
        {
          "internalType": "address",
          "name": "operator",
          "type": "address"
        }
      ],
      "name": "ERC721InvalidOperator",
      "type": "error"
    },
    {
      "inputs": [
        {
          "internalType": "address",
          "name": "owner",
          "type": "address"
        }
      ],
      "name": "ERC721InvalidOwner",
      "type": "error"
    },
    {
      "inputs": [
        {
          "internalType": "address",
          "name": "receiver",
          "type": "address"
        }
      ],
      "name": "ERC721InvalidReceiver",
      "type": "error"
    },
    {
      "inputs": [
        {
          "internalType": "address",
          "name": "sender",
          "type": "address"
        }
      ],
      "name": "ERC721InvalidSender",
      "type": "error"
    },
    {
      "inputs": [
        {
          "internalType": "uint256",
          "name": "tokenId",
          "type": "uint256"
        }
      ],
      "name": "ERC721NonexistentToken",
      "type": "error"
    },
    {
      "inputs": [
        {
          "internalType": "address",
          "name": "owner",
          "type": "address"
        },
        {
          "internalType": "uint256",
          "name": "index",
          "type": "uint256"
        }
      ],
      "name": "ERC721OutOfBoundsIndex",
      "type": "error"
    },
    {
      "inputs": [
        {
          "internalType": "address",
          "name": "owner",
          "type": "address"
        }
      ],
      "name": "OwnableInvalidOwner",
      "type": "error"
    },
    {
      "inputs": [
        {
          "internalType": "address",
          "name": "account",
          "type": "address"
        }
      ],
      "name": "OwnableUnauthorizedAccount",
      "type": "error"
    },
    {
      "anonymous": false,
      "inputs": [
        {
          "indexed": true,
          "internalType": "address",
          "name": "owner",
          "type": "address"
        },
        {
          "indexed": true,
          "internalType": "address",
          "name": "approved",
          "type": "address"
        },
        {
          "indexed": true,
          "internalType": "uint256",
          "name": "tokenId",
          "type": "uint256"
        }
      ],
      "name": "Approval",
      "type": "event"
    },
    {
      "anonymous": false,
      "inputs": [
        {
          "indexed": true,
          "internalType": "address",
          "name": "owner",
          "type": "address"
        },
        {
          "indexed": true,
          "internalType": "address",
          "name": "operator",
          "type": "address"
        },
        {
          "indexed": false,
          "internalType": "bool",
          "name": "approved",
          "type": "bool"
        }
      ],
      "name": "ApprovalForAll",
      "type": "event"
    },
    {
      "anonymous": false,
      "inputs": [
        {
          "indexed": false,
          "internalType": "uint256",
          "name": "_fromTokenId",
          "type": "uint256"
        },
        {
          "indexed": false,
          "internalType": "uint256",
          "name": "_toTokenId",
          "type": "uint256"
        }
      ],
      "name": "BatchMetadataUpdate",
      "type": "event"
    },
    {
      "anonymous": false,
      "inputs": [
        {
          "indexed": false,
          "internalType": "uint256",
          "name": "_tokenId",
          "type": "uint256"
        }
      ],
      "name": "MetadataUpdate",
      "type": "event"
    },
    {
      "anonymous": false,
      "inputs": [
        {
          "indexed": true,
          "internalType": "address",
          "name": "previousOwner",
          "type": "address"
        },
        {
          "indexed": true,
          "internalType": "address",
          "name": "newOwner",
          "type": "address"
        }
      ],
      "name": "OwnershipTransferred",
      "type": "event"
    },
    {
      "anonymous": false,
      "inputs": [
        {
          "indexed": true,
          "internalType": "address",
          "name": "from",
          "type": "address"
        },
        {
          "indexed": true,
          "internalType": "address",
          "name": "to",
          "type": "address"
        },
        {
          "indexed": true,
          "internalType": "uint256",
          "name": "tokenId",
          "type": "uint256"
        }
      ],
      "name": "Transfer",
      "type": "event"
    },
    {
      "inputs": [
        {
          "internalType": "address",
          "name": "to",
          "type": "address"
        },
        {
          "internalType": "uint256",
          "name": "tokenId",
          "type": "uint256"
        }
      ],
      "name": "approve",
      "outputs": [],
      "stateMutability": "nonpayable",
      "type": "function"
    },
    {
      "inputs": [
        {
          "internalType": "address",
          "name": "owner",
          "type": "address"
        }
      ],
      "name": "balanceOf",
      "outputs": [
        {
          "internalType": "uint256",
          "name": "",
          "type": "uint256"
        }
      ],
      "stateMutability": "view",
      "type": "function"
    },
    {
      "inputs": [
        {
          "internalType": "uint256",
          "name": "tokenId",
          "type": "uint256"
        }
      ],
      "name": "burn",
      "outputs": [],
      "stateMutability": "nonpayable",
      "type": "function"
    },
    {
      "inputs": [
        {
          "internalType": "uint256",
          "name": "tokenId",
          "type": "uint256"
        }
      ],
      "name": "getApproved",
      "outputs": [
        {
          "internalType": "address",
          "name": "",
          "type": "address"
        }
      ],
      "stateMutability": "view",
      "type": "function"
    },
    {
      "inputs": [],
      "name": "getRoyalty",
      "outputs": [
        {
          "internalType": "uint256",
          "name": "",
          "type": "uint256"
        }
      ],
      "stateMutability": "view",
      "type": "function"
    },
    {
      "inputs": [],
      "name": "getRoyaltyRecipient",
      "outputs": [
        {
          "internalType": "address",
          "name": "",
          "type": "address"
        }
      ],
      "stateMutability": "view",
      "type": "function"
    },
    {
      "inputs": [
        {
          "internalType": "address",
          "name": "owner",
          "type": "address"
        },
        {
          "internalType": "address",
          "name": "operator",
          "type": "address"
        }
      ],
      "name": "isApprovedForAll",
      "outputs": [
        {
          "internalType": "bool",
          "name": "",
          "type": "bool"
        }
      ],
      "stateMutability": "view",
      "type": "function"
    },
    {
      "inputs": [],
      "name": "name",
      "outputs": [
        {
          "internalType": "string",
          "name": "",
          "type": "string"
        }
      ],
      "stateMutability": "view",
      "type": "function"
    },
    {
      "inputs": [],
      "name": "owner",
      "outputs": [
        {
          "internalType": "address",
          "name": "",
          "type": "address"
        }
      ],
      "stateMutability": "view",
      "type": "function"
    },
    {
      "inputs": [
        {
          "internalType": "uint256",
          "name": "tokenId",
          "type": "uint256"
        }
      ],
      "name": "ownerOf",
      "outputs": [
        {
          "internalType": "address",
          "name": "",
          "type": "address"
        }
      ],
      "stateMutability": "view",
      "type": "function"
    },
    {
      "inputs": [],
      "name": "renounceOwnership",
      "outputs": [],
      "stateMutability": "nonpayable",
      "type": "function"
    },
    {
      "inputs": [
        {
          "internalType": "address",
          "name": "to",
          "type": "address"
        },
        {
          "internalType": "string",
          "name": "uri",
          "type": "string"
        }
      ],
      "name": "safeMint",
      "outputs": [],
      "stateMutability": "nonpayable",
      "type": "function"
    },
    {
      "inputs": [
        {
          "internalType": "address",
          "name": "from",
          "type": "address"
        },
        {
          "internalType": "address",
          "name": "to",
          "type": "address"
        },
        {
          "internalType": "uint256",
          "name": "tokenId",
          "type": "uint256"
        }
      ],
      "name": "safeTransferFrom",
      "outputs": [],
      "stateMutability": "nonpayable",
      "type": "function"
    },
    {
      "inputs": [
        {
          "internalType": "address",
          "name": "from",
          "type": "address"
        },
        {
          "internalType": "address",
          "name": "to",
          "type": "address"
        },
        {
          "internalType": "uint256",
          "name": "tokenId",
          "type": "uint256"
        },
        {
          "internalType": "bytes",
          "name": "data",
          "type": "bytes"
        }
      ],
      "name": "safeTransferFrom",
      "outputs": [],
      "stateMutability": "nonpayable",
      "type": "function"
    },
    {
      "inputs": [
        {
          "internalType": "address",
          "name": "operator",
          "type": "address"
        },
        {
          "internalType": "bool",
          "name": "approved",
          "type": "bool"
        }
      ],
      "name": "setApprovalForAll",
      "outputs": [],
      "stateMutability": "nonpayable",
      "type": "function"
    },
    {
      "inputs": [
        {
          "internalType": "bytes4",
          "name": "interfaceId",
          "type": "bytes4"
        }
      ],
      "name": "supportsInterface",
      "outputs": [
        {
          "internalType": "bool",
          "name": "",
          "type": "bool"
        }
      ],
      "stateMutability": "view",
      "type": "function"
    },
    {
      "inputs": [],
      "name": "symbol",
      "outputs": [
        {
          "internalType": "string",
          "name": "",
          "type": "string"
        }
      ],
      "stateMutability": "view",
      "type": "function"
    },
    {
      "inputs": [
        {
          "internalType": "uint256",
          "name": "index",
          "type": "uint256"
        }
      ],
      "name": "tokenByIndex",
      "outputs": [
        {
          "internalType": "uint256",
          "name": "",
          "type": "uint256"
        }
      ],
      "stateMutability": "view",
      "type": "function"
    },
    {
      "inputs": [
        {
          "internalType": "address",
          "name": "owner",
          "type": "address"
        },
        {
          "internalType": "uint256",
          "name": "index",
          "type": "uint256"
        }
      ],
      "name": "tokenOfOwnerByIndex",
      "outputs": [
        {
          "internalType": "uint256",
          "name": "",
          "type": "uint256"
        }
      ],
      "stateMutability": "view",
      "type": "function"
    },
    {
      "inputs": [
        {
          "internalType": "uint256",
          "name": "tokenId",
          "type": "uint256"
        }
      ],
      "name": "tokenURI",
      "outputs": [
        {
          "internalType": "string",
          "name": "",
          "type": "string"
        }
      ],
      "stateMutability": "view",
      "type": "function"
    },
    {
      "inputs": [],
      "name": "totalSupply",
      "outputs": [
        {
          "internalType": "uint256",
          "name": "",
          "type": "uint256"
        }
      ],
      "stateMutability": "view",
      "type": "function"
    },
    {
      "inputs": [
        {
          "internalType": "address",
          "name": "from",
          "type": "address"
        },
        {
          "internalType": "address",
          "name": "to",
          "type": "address"
        },
        {
          "internalType": "uint256",
          "name": "tokenId",
          "type": "uint256"
        }
      ],
      "name": "transferFrom",
      "outputs": [],
      "stateMutability": "nonpayable",
      "type": "function"
    },
    {
      "inputs": [
        {
          "internalType": "address",
          "name": "newOwner",
          "type": "address"
        }
      ],
      "name": "transferOwnership",
      "outputs": [],
      "stateMutability": "nonpayable",
      "type": "function"
    },
    {
      "inputs": [
        {
          "internalType": "uint256",
          "name": "royalty",
          "type": "uint256"
        }
      ],
      "name": "updateRoyalty",
      "outputs": [],
      "stateMutability": "nonpayable",
      "type": "function"
    }
  ],
  "bytecode": "0x608060405234801561001057600080fd5b5060405161369f38038061369f833981810160405281019061003291906103fa565b828585816000908161004491906106c4565b50806001908161005491906106c4565b505050600073ffffffffffffffffffffffffffffffffffffffff168173ffffffffffffffffffffffffffffffffffffffff16036100c95760006040517f1e4fbdf70000000000000000000000000000000000000000000000000000000081526004016100c091906107a5565b60405180910390fd5b6100d88161012b60201b60201c565b5081600d8190555080600e60006101000a81548173ffffffffffffffffffffffffffffffffffffffff021916908373ffffffffffffffffffffffffffffffffffffffff16021790555050505050506107c0565b6000600b60009054906101000a900473ffffffffffffffffffffffffffffffffffffffff16905081600b60006101000a81548173ffffffffffffffffffffffffffffffffffffffff021916908373ffffffffffffffffffffffffffffffffffffffff1602179055508173ffffffffffffffffffffffffffffffffffffffff168173ffffffffffffffffffffffffffffffffffffffff167f8be0079c531659141344cd1fd0a4f28419497f9722a3daafe3b4186f6b6457e060405160405180910390a35050565b6000604051905090565b600080fd5b600080fd5b600080fd5b600080fd5b6000601f19601f8301169050919050565b7f4e487b7100000000000000000000000000000000000000000000000000000000600052604160045260246000fd5b6102588261020f565b810181811067ffffffffffffffff8211171561027757610276610220565b5b80604052505050565b600061028a6101f1565b9050610296828261024f565b919050565b600067ffffffffffffffff8211156102b6576102b5610220565b5b6102bf8261020f565b9050602081019050919050565b60005b838110156102ea5780820151818401526020810190506102cf565b60008484015250505050565b60006103096103048461029b565b610280565b9050828152602081018484840111156103255761032461020a565b5b6103308482856102cc565b509392505050565b600082601f83011261034d5761034c610205565b5b815161035d8482602086016102f6565b91505092915050565b600073ffffffffffffffffffffffffffffffffffffffff82169050919050565b600061039182610366565b9050919050565b6103a181610386565b81146103ac57600080fd5b50565b6000815190506103be81610398565b92915050565b6000819050919050565b6103d7816103c4565b81146103e257600080fd5b50565b6000815190506103f4816103ce565b92915050565b600080600080600060a08688031215610416576104156101fb565b5b600086015167ffffffffffffffff81111561043457610433610200565b5b61044088828901610338565b955050602086015167ffffffffffffffff81111561046157610460610200565b5b61046d88828901610338565b945050604061047e888289016103af565b935050606061048f888289016103e5565b92505060806104a0888289016103af565b9150509295509295909350565b600081519050919050565b7f4e487b7100000000000000000000000000000000000000000000000000000000600052602260045260246000fd5b600060028204905060018216806104ff57607f821691505b602082108103610512576105116104b8565b5b50919050565b60008190508160005260206000209050919050565b60006020601f8301049050919050565b600082821b905092915050565b60006008830261057a7fffffffffffffffffffffffffffffffffffffffffffffffffffffffffffffffff8261053d565b610584868361053d565b95508019841693508086168417925050509392505050565b6000819050919050565b60006105c16105bc6105b7846103c4565b61059c565b6103c4565b9050919050565b6000819050919050565b6105db836105a6565b6105ef6105e7826105c8565b84845461054a565b825550505050565b600090565b6106046105f7565b61060f8184846105d2565b505050565b5b81811015610633576106286000826105fc565b600181019050610615565b5050565b601f8211156106785761064981610518565b6106528461052d565b81016020851015610661578190505b61067561066d8561052d565b830182610614565b50505b505050565b600082821c905092915050565b600061069b6000198460080261067d565b1980831691505092915050565b60006106b4838361068a565b9150826002028217905092915050565b6106cd826104ad565b67ffffffffffffffff8111156106e6576106e5610220565b5b6106f082546104e7565b6106fb828285610637565b600060209050601f83116001811461072e576000841561071c578287015190505b61072685826106a8565b86555061078e565b601f19841661073c86610518565b60005b828110156107645784890151825560018201915060208501945060208101905061073f565b86831015610781578489015161077d601f89168261068a565b8355505b6001600288020188555050505b505050505050565b61079f81610386565b82525050565b60006020820190506107ba6000830184610796565b92915050565b612ed0806107cf6000396000f3fe608060405234801561001057600080fd5b50600436106101585760003560e01c806370a08231116100c3578063a22cb4651161007c578063a22cb465146103c7578063b88d4fde146103e3578063c87b56dd146103ff578063d204c45e1461042f578063e985e9c51461044b578063f2fde38b1461047b57610158565b806370a0823114610317578063715018a6146103475780638da5cb5b146103515780638fffd8b51461036f57806395d89b411461038b57806395edc18c146103a957610158565b80632f745c59116101155780632f745c591461023157806342842e0e1461026157806342966c681461027d5780634d47732a146102995780634f6ccce7146102b75780636352211e146102e757610158565b806301ffc9a71461015d57806306fdde031461018d578063081812fc146101ab578063095ea7b3146101db57806318160ddd146101f757806323b872dd14610215575b600080fd5b6101776004803603810190610172919061222a565b610497565b6040516101849190612272565b60405180910390f35b6101956104a9565b6040516101a2919061231d565b60405180910390f35b6101c560048036038101906101c09190612375565b61053b565b6040516101d291906123e3565b60405180910390f35b6101f560048036038101906101f0919061242a565b610557565b005b6101ff61056d565b60405161020c9190612479565b60405180910390f35b61022f600480360381019061022a9190612494565b61057a565b005b61024b6004803603810190610246919061242a565b61067c565b6040516102589190612479565b60405180910390f35b61027b60048036038101906102769190612494565b610725565b005b61029760048036038101906102929190612375565b610745565b005b6102a161075c565b6040516102ae9190612479565b60405180910390f35b6102d160048036038101906102cc9190612375565b610766565b6040516102de9190612479565b60405180910390f35b61030160048036038101906102fc9190612375565b6107dc565b60405161030e91906123e3565b60405180910390f35b610331600480360381019061032c91906124e7565b6107ee565b60405161033e9190612479565b60405180910390f35b61034f6108a8565b005b6103596108bc565b60405161036691906123e3565b60405180910390f35b61038960048036038101906103849190612375565b6108e6565b005b61039361093d565b6040516103a0919061231d565b60405180910390f35b6103b16109cf565b6040516103be91906123e3565b60405180910390f35b6103e160048036038101906103dc9190612540565b6109f9565b005b6103fd60048036038101906103f891906126b5565b610a0f565b005b61041960048036038101906104149190612375565b610a34565b604051610426919061231d565b60405180910390f35b610449600480360381019061044491906127d9565b610a46565b005b61046560048036038101906104609190612835565b610a82565b6040516104729190612272565b60405180910390f35b610495600480360381019061049091906124e7565b610b16565b005b60006104a282610b9c565b9050919050565b6060600080546104b8906128a4565b80601f01602080910402602001604051908101604052809291908181526020018280546104e4906128a4565b80156105315780601f1061050657610100808354040283529160200191610531565b820191906000526020600020905b81548152906001019060200180831161051457829003601f168201915b5050505050905090565b600061054682610bfd565b5061055082610c85565b9050919050565b6105698282610564610cc2565b610cca565b5050565b6000600880549050905090565b600073ffffffffffffffffffffffffffffffffffffffff168273ffffffffffffffffffffffffffffffffffffffff16036105ec5760006040517f64a0ae920000000000000000000000000000000000000000000000000000000081526004016105e391906123e3565b60405180910390fd5b600061060083836105fb610cc2565b610cdc565b90508373ffffffffffffffffffffffffffffffffffffffff168173ffffffffffffffffffffffffffffffffffffffff1614610676578382826040517f64283d7b00000000000000000000000000000000000000000000000000000000815260040161066d939291906128d5565b60405180910390fd5b50505050565b6000610687836107ee565b82106106cc5782826040517fa57d13dc0000000000000000000000000000000000000000000000000000000081526004016106c392919061290c565b60405180910390fd5b600660008473ffffffffffffffffffffffffffffffffffffffff1673ffffffffffffffffffffffffffffffffffffffff168152602001908152602001600020600083815260200190815260200160002054905092915050565b61074083838360405180602001604052806000815250610a0f565b505050565b610758600082610753610cc2565b610cdc565b5050565b6000600d54905090565b600061077061056d565b82106107b6576000826040517fa57d13dc0000000000000000000000000000000000000000000000000000000081526004016107ad92919061290c565b60405180910390fd5b600882815481106107ca576107c9612935565b5b90600052602060002001549050919050565b60006107e782610bfd565b9050919050565b60008073ffffffffffffffffffffffffffffffffffffffff168273ffffffffffffffffffffffffffffffffffffffff16036108615760006040517f89c62b6400000000000000000000000000000000000000000000000000000000815260040161085891906123e3565b60405180910390fd5b600360008373ffffffffffffffffffffffffffffffffffffffff1673ffffffffffffffffffffffffffffffffffffffff168152602001908152602001600020549050919050565b6108b0610cf2565b6108ba6000610d79565b565b6000600b60009054906101000a900473ffffffffffffffffffffffffffffffffffffffff16905090565b6108ee610cf2565b612710811115610933576040517f08c379a000000000000000000000000000000000000000000000000000000000815260040161092a906129b0565b60405180910390fd5b80600d8190555050565b60606001805461094c906128a4565b80601f0160208091040260200160405190810160405280929190818152602001828054610978906128a4565b80156109c55780601f1061099a576101008083540402835291602001916109c5565b820191906000526020600020905b8154815290600101906020018083116109a857829003601f168201915b5050505050905090565b6000600e60009054906101000a900473ffffffffffffffffffffffffffffffffffffffff16905090565b610a0b610a04610cc2565b8383610e3f565b5050565b610a1a84848461057a565b610a2e610a25610cc2565b85858585610fae565b50505050565b6060610a3f8261115f565b9050919050565b610a4e610cf2565b6000600c6000815480929190610a63906129ff565b919050559050610a738382611272565b610a7d8183611290565b505050565b6000600560008473ffffffffffffffffffffffffffffffffffffffff1673ffffffffffffffffffffffffffffffffffffffff16815260200190815260200160002060008373ffffffffffffffffffffffffffffffffffffffff1673ffffffffffffffffffffffffffffffffffffffff16815260200190815260200160002060009054906101000a900460ff16905092915050565b610b1e610cf2565b600073ffffffffffffffffffffffffffffffffffffffff168173ffffffffffffffffffffffffffffffffffffffff1603610b905760006040517f1e4fbdf7000000000000000000000000000000000000000000000000000000008152600401610b8791906123e3565b60405180910390fd5b610b9981610d79565b50565b6000634906490660e01b7bffffffffffffffffffffffffffffffffffffffffffffffffffffffff1916827bffffffffffffffffffffffffffffffffffffffffffffffffffffffff19161480610bf65750610bf5826112ec565b5b9050919050565b600080610c0983611366565b9050600073ffffffffffffffffffffffffffffffffffffffff168173ffffffffffffffffffffffffffffffffffffffff1603610c7c57826040517f7e273289000000000000000000000000000000000000000000000000000000008152600401610c739190612479565b60405180910390fd5b80915050919050565b60006004600083815260200190815260200160002060009054906101000a900473ffffffffffffffffffffffffffffffffffffffff169050919050565b600033905090565b610cd783838360016113a3565b505050565b6000610ce9848484611568565b90509392505050565b610cfa610cc2565b73ffffffffffffffffffffffffffffffffffffffff16610d186108bc565b73ffffffffffffffffffffffffffffffffffffffff1614610d7757610d3b610cc2565b6040517f118cdaa7000000000000000000000000000000000000000000000000000000008152600401610d6e91906123e3565b60405180910390fd5b565b6000600b60009054906101000a900473ffffffffffffffffffffffffffffffffffffffff16905081600b60006101000a81548173ffffffffffffffffffffffffffffffffffffffff021916908373ffffffffffffffffffffffffffffffffffffffff1602179055508173ffffffffffffffffffffffffffffffffffffffff168173ffffffffffffffffffffffffffffffffffffffff167f8be0079c531659141344cd1fd0a4f28419497f9722a3daafe3b4186f6b6457e060405160405180910390a35050565b600073ffffffffffffffffffffffffffffffffffffffff168273ffffffffffffffffffffffffffffffffffffffff1603610eb057816040517f5b08ba18000000000000000000000000000000000000000000000000000000008152600401610ea791906123e3565b60405180910390fd5b80600560008573ffffffffffffffffffffffffffffffffffffffff1673ffffffffffffffffffffffffffffffffffffffff16815260200190815260200160002060008473ffffffffffffffffffffffffffffffffffffffff1673ffffffffffffffffffffffffffffffffffffffff16815260200190815260200160002060006101000a81548160ff0219169083151502179055508173ffffffffffffffffffffffffffffffffffffffff168373ffffffffffffffffffffffffffffffffffffffff167f17307eab39ab6107e8899845ad3d59bd9653f200f220920489ca2b5937696c3183604051610fa19190612272565b60405180910390a3505050565b60008373ffffffffffffffffffffffffffffffffffffffff163b1115611158578273ffffffffffffffffffffffffffffffffffffffff1663150b7a02868685856040518563ffffffff1660e01b815260040161100d9493929190612a9c565b6020604051808303816000875af192505050801561104957506040513d601f19601f820116820180604052508101906110469190612afd565b60015b6110cd573d8060008114611079576040519150601f19603f3d011682016040523d82523d6000602084013e61107e565b606091505b5060008151036110c557836040517f64a0ae920000000000000000000000000000000000000000000000000000000081526004016110bc91906123e3565b60405180910390fd5b805181602001fd5b63150b7a0260e01b7bffffffffffffffffffffffffffffffffffffffffffffffffffffffff1916817bffffffffffffffffffffffffffffffffffffffffffffffffffffffff19161461115657836040517f64a0ae9200000000000000000000000000000000000000000000000000000000815260040161114d91906123e3565b60405180910390fd5b505b5050505050565b606061116a82610bfd565b506000600a6000848152602001908152602001600020805461118b906128a4565b80601f01602080910402602001604051908101604052809291908181526020018280546111b7906128a4565b80156112045780601f106111d957610100808354040283529160200191611204565b820191906000526020600020905b8154815290600101906020018083116111e757829003601f168201915b505050505090506000611215611685565b9050600081510361122a57819250505061126d565b60008251111561125f578082604051602001611247929190612b66565b6040516020818303038152906040529250505061126d565b6112688461169c565b925050505b919050565b61128c828260405180602001604052806000815250611705565b5050565b80600a600084815260200190815260200160002090816112b09190612d36565b507ff8e1a15aba9398e019f0b49df1a4fde98ee17ae345cb5f6b5e2c27f5033e8ce7826040516112e09190612479565b60405180910390a15050565b60007f780e9d63000000000000000000000000000000000000000000000000000000007bffffffffffffffffffffffffffffffffffffffffffffffffffffffff1916827bffffffffffffffffffffffffffffffffffffffffffffffffffffffff1916148061135f575061135e82611729565b5b9050919050565b60006002600083815260200190815260200160002060009054906101000a900473ffffffffffffffffffffffffffffffffffffffff169050919050565b80806113dc5750600073ffffffffffffffffffffffffffffffffffffffff168273ffffffffffffffffffffffffffffffffffffffff1614155b156115105760006113ec84610bfd565b9050600073ffffffffffffffffffffffffffffffffffffffff168373ffffffffffffffffffffffffffffffffffffffff161415801561145757508273ffffffffffffffffffffffffffffffffffffffff168173ffffffffffffffffffffffffffffffffffffffff1614155b801561146a57506114688184610a82565b155b156114ac57826040517fa9fbf51f0000000000000000000000000000000000000000000000000000000081526004016114a391906123e3565b60405180910390fd5b811561150e57838573ffffffffffffffffffffffffffffffffffffffff168273ffffffffffffffffffffffffffffffffffffffff167f8c5be1e5ebec7d5bd14f71427d1e84f3dd0314c0f7b2291e5b200ac8c7c3b92560405160405180910390a45b505b836004600085815260200190815260200160002060006101000a81548173ffffffffffffffffffffffffffffffffffffffff021916908373ffffffffffffffffffffffffffffffffffffffff16021790555050505050565b60008061157685858561180b565b9050600073ffffffffffffffffffffffffffffffffffffffff168173ffffffffffffffffffffffffffffffffffffffff16036115ba576115b584611a25565b6115f9565b8473ffffffffffffffffffffffffffffffffffffffff168173ffffffffffffffffffffffffffffffffffffffff16146115f8576115f78185611a6e565b5b5b600073ffffffffffffffffffffffffffffffffffffffff168573ffffffffffffffffffffffffffffffffffffffff160361163b5761163684611b59565b61167a565b8473ffffffffffffffffffffffffffffffffffffffff168173ffffffffffffffffffffffffffffffffffffffff1614611679576116788585611c2a565b5b5b809150509392505050565b606060405180602001604052806000815250905090565b60606116a782610bfd565b5060006116b2611685565b905060008151116116d257604051806020016040528060008152506116fd565b806116dc84611cb5565b6040516020016116ed929190612b66565b6040516020818303038152906040525b915050919050565b61170f8383611d83565b61172461171a610cc2565b6000858585610fae565b505050565b60007f80ac58cd000000000000000000000000000000000000000000000000000000007bffffffffffffffffffffffffffffffffffffffffffffffffffffffff1916827bffffffffffffffffffffffffffffffffffffffffffffffffffffffff191614806117f457507f5b5e139f000000000000000000000000000000000000000000000000000000007bffffffffffffffffffffffffffffffffffffffffffffffffffffffff1916827bffffffffffffffffffffffffffffffffffffffffffffffffffffffff1916145b80611804575061180382611e7c565b5b9050919050565b60008061181784611366565b9050600073ffffffffffffffffffffffffffffffffffffffff168373ffffffffffffffffffffffffffffffffffffffff161461185957611858818486611ee6565b5b600073ffffffffffffffffffffffffffffffffffffffff168173ffffffffffffffffffffffffffffffffffffffff16146118ea5761189b6000856000806113a3565b6001600360008373ffffffffffffffffffffffffffffffffffffffff1673ffffffffffffffffffffffffffffffffffffffff168152602001908152602001600020600082825403925050819055505b600073ffffffffffffffffffffffffffffffffffffffff168573ffffffffffffffffffffffffffffffffffffffff161461196d576001600360008773ffffffffffffffffffffffffffffffffffffffff1673ffffffffffffffffffffffffffffffffffffffff168152602001908152602001600020600082825401925050819055505b846002600086815260200190815260200160002060006101000a81548173ffffffffffffffffffffffffffffffffffffffff021916908373ffffffffffffffffffffffffffffffffffffffff160217905550838573ffffffffffffffffffffffffffffffffffffffff168273ffffffffffffffffffffffffffffffffffffffff167fddf252ad1be2c89b69c2b068fc378daa952ba7f163c4a11628f55a4df523b3ef60405160405180910390a4809150509392505050565b6008805490506009600083815260200190815260200160002081905550600881908060018154018082558091505060019003906000526020600020016000909190919091505550565b6000611a79836107ee565b90506000600760008481526020019081526020016000205490506000600660008673ffffffffffffffffffffffffffffffffffffffff1673ffffffffffffffffffffffffffffffffffffffff1681526020019081526020016000209050828214611b255760008160008581526020019081526020016000205490508082600085815260200190815260200160002081905550826007600083815260200190815260200160002081905550505b6007600085815260200190815260200160002060009055806000848152602001908152602001600020600090555050505050565b60006001600880549050611b6d9190612e08565b9050600060096000848152602001908152602001600020549050600060088381548110611b9d57611b9c612935565b5b906000526020600020015490508060088381548110611bbf57611bbe612935565b5b906000526020600020018190555081600960008381526020019081526020016000208190555060096000858152602001908152602001600020600090556008805480611c0e57611c0d612e3c565b5b6001900381819060005260206000200160009055905550505050565b60006001611c37846107ee565b611c419190612e08565b905081600660008573ffffffffffffffffffffffffffffffffffffffff1673ffffffffffffffffffffffffffffffffffffffff168152602001908152602001600020600083815260200190815260200160002081905550806007600084815260200190815260200160002081905550505050565b606060006001611cc484611faa565b01905060008167ffffffffffffffff811115611ce357611ce261258a565b5b6040519080825280601f01601f191660200182016040528015611d155781602001600182028036833780820191505090505b509050600082602001820190505b600115611d78578080600190039150507f3031323334353637383961626364656600000000000000000000000000000000600a86061a8153600a8581611d6c57611d6b612e6b565b5b04945060008503611d23575b819350505050919050565b600073ffffffffffffffffffffffffffffffffffffffff168273ffffffffffffffffffffffffffffffffffffffff1603611df55760006040517f64a0ae92000000000000000000000000000000000000000000000000000000008152600401611dec91906123e3565b60405180910390fd5b6000611e0383836000610cdc565b9050600073ffffffffffffffffffffffffffffffffffffffff168173ffffffffffffffffffffffffffffffffffffffff1614611e775760006040517f73c6ac6e000000000000000000000000000000000000000000000000000000008152600401611e6e91906123e3565b60405180910390fd5b505050565b60007f01ffc9a7000000000000000000000000000000000000000000000000000000007bffffffffffffffffffffffffffffffffffffffffffffffffffffffff1916827bffffffffffffffffffffffffffffffffffffffffffffffffffffffff1916149050919050565b611ef18383836120fd565b611fa557600073ffffffffffffffffffffffffffffffffffffffff168373ffffffffffffffffffffffffffffffffffffffff1603611f6657806040517f7e273289000000000000000000000000000000000000000000000000000000008152600401611f5d9190612479565b60405180910390fd5b81816040517f177e802f000000000000000000000000000000000000000000000000000000008152600401611f9c92919061290c565b60405180910390fd5b505050565b600080600090507a184f03e93ff9f4daa797ed6e38ed64bf6a1f0100000000000000008310612008577a184f03e93ff9f4daa797ed6e38ed64bf6a1f0100000000000000008381611ffe57611ffd612e6b565b5b0492506040810190505b6d04ee2d6d415b85acef81000000008310612045576d04ee2d6d415b85acef8100000000838161203b5761203a612e6b565b5b0492506020810190505b662386f26fc10000831061207457662386f26fc10000838161206a57612069612e6b565b5b0492506010810190505b6305f5e100831061209d576305f5e100838161209357612092612e6b565b5b0492506008810190505b61271083106120c25761271083816120b8576120b7612e6b565b5b0492506004810190505b606483106120e557606483816120db576120da612e6b565b5b0492506002810190505b600a83106120f4576001810190505b80915050919050565b60008073ffffffffffffffffffffffffffffffffffffffff168373ffffffffffffffffffffffffffffffffffffffff16141580156121b557508273ffffffffffffffffffffffffffffffffffffffff168473ffffffffffffffffffffffffffffffffffffffff16148061217657506121758484610a82565b5b806121b457508273ffffffffffffffffffffffffffffffffffffffff1661219c83610c85565b73ffffffffffffffffffffffffffffffffffffffff16145b5b90509392505050565b6000604051905090565b600080fd5b600080fd5b60007fffffffff0000000000000000000000000000000000000000000000000000000082169050919050565b612207816121d2565b811461221257600080fd5b50565b600081359050612224816121fe565b92915050565b6000602082840312156122405761223f6121c8565b5b600061224e84828501612215565b91505092915050565b60008115159050919050565b61226c81612257565b82525050565b60006020820190506122876000830184612263565b92915050565b600081519050919050565b600082825260208201905092915050565b60005b838110156122c75780820151818401526020810190506122ac565b60008484015250505050565b6000601f19601f8301169050919050565b60006122ef8261228d565b6122f98185612298565b93506123098185602086016122a9565b612312816122d3565b840191505092915050565b6000602082019050818103600083015261233781846122e4565b905092915050565b6000819050919050565b6123528161233f565b811461235d57600080fd5b50565b60008135905061236f81612349565b92915050565b60006020828403121561238b5761238a6121c8565b5b600061239984828501612360565b91505092915050565b600073ffffffffffffffffffffffffffffffffffffffff82169050919050565b60006123cd826123a2565b9050919050565b6123dd816123c2565b82525050565b60006020820190506123f860008301846123d4565b92915050565b612407816123c2565b811461241257600080fd5b50565b600081359050612424816123fe565b92915050565b60008060408385031215612441576124406121c8565b5b600061244f85828601612415565b925050602061246085828601612360565b9150509250929050565b6124738161233f565b82525050565b600060208201905061248e600083018461246a565b92915050565b6000806000606084860312156124ad576124ac6121c8565b5b60006124bb86828701612415565b93505060206124cc86828701612415565b92505060406124dd86828701612360565b9150509250925092565b6000602082840312156124fd576124fc6121c8565b5b600061250b84828501612415565b91505092915050565b61251d81612257565b811461252857600080fd5b50565b60008135905061253a81612514565b92915050565b60008060408385031215612557576125566121c8565b5b600061256585828601612415565b92505060206125768582860161252b565b9150509250929050565b600080fd5b600080fd5b7f4e487b7100000000000000000000000000000000000000000000000000000000600052604160045260246000fd5b6125c2826122d3565b810181811067ffffffffffffffff821117156125e1576125e061258a565b5b80604052505050565b60006125f46121be565b905061260082826125b9565b919050565b600067ffffffffffffffff8211156126205761261f61258a565b5b612629826122d3565b9050602081019050919050565b82818337600083830152505050565b600061265861265384612605565b6125ea565b90508281526020810184848401111561267457612673612585565b5b61267f848285612636565b509392505050565b600082601f83011261269c5761269b612580565b5b81356126ac848260208601612645565b91505092915050565b600080600080608085870312156126cf576126ce6121c8565b5b60006126dd87828801612415565b94505060206126ee87828801612415565b93505060406126ff87828801612360565b925050606085013567ffffffffffffffff8111156127205761271f6121cd565b5b61272c87828801612687565b91505092959194509250565b600067ffffffffffffffff8211156127535761275261258a565b5b61275c826122d3565b9050602081019050919050565b600061277c61277784612738565b6125ea565b90508281526020810184848401111561279857612797612585565b5b6127a3848285612636565b509392505050565b600082601f8301126127c0576127bf612580565b5b81356127d0848260208601612769565b91505092915050565b600080604083850312156127f0576127ef6121c8565b5b60006127fe85828601612415565b925050602083013567ffffffffffffffff81111561281f5761281e6121cd565b5b61282b858286016127ab565b9150509250929050565b6000806040838503121561284c5761284b6121c8565b5b600061285a85828601612415565b925050602061286b85828601612415565b9150509250929050565b7f4e487b7100000000000000000000000000000000000000000000000000000000600052602260045260246000fd5b600060028204905060018216806128bc57607f821691505b6020821081036128cf576128ce612875565b5b50919050565b60006060820190506128ea60008301866123d4565b6128f7602083018561246a565b61290460408301846123d4565b949350505050565b600060408201905061292160008301856123d4565b61292e602083018461246a565b9392505050565b7f4e487b7100000000000000000000000000000000000000000000000000000000600052603260045260246000fd5b7f63616e2774206d6f7265207468616e2031302070657263656e74000000000000600082015250565b600061299a601a83612298565b91506129a582612964565b602082019050919050565b600060208201905081810360008301526129c98161298d565b9050919050565b7f4e487b7100000000000000000000000000000000000000000000000000000000600052601160045260246000fd5b6000612a0a8261233f565b91507fffffffffffffffffffffffffffffffffffffffffffffffffffffffffffffffff8203612a3c57612a3b6129d0565b5b600182019050919050565b600081519050919050565b600082825260208201905092915050565b6000612a6e82612a47565b612a788185612a52565b9350612a888185602086016122a9565b612a91816122d3565b840191505092915050565b6000608082019050612ab160008301876123d4565b612abe60208301866123d4565b612acb604083018561246a565b8181036060830152612add8184612a63565b905095945050505050565b600081519050612af7816121fe565b92915050565b600060208284031215612b1357612b126121c8565b5b6000612b2184828501612ae8565b91505092915050565b600081905092915050565b6000612b408261228d565b612b4a8185612b2a565b9350612b5a8185602086016122a9565b80840191505092915050565b6000612b728285612b35565b9150612b7e8284612b35565b91508190509392505050565b60008190508160005260206000209050919050565b60006020601f8301049050919050565b600082821b905092915050565b600060088302612bec7fffffffffffffffffffffffffffffffffffffffffffffffffffffffffffffffff82612baf565b612bf68683612baf565b95508019841693508086168417925050509392505050565b6000819050919050565b6000612c33612c2e612c298461233f565b612c0e565b61233f565b9050919050565b6000819050919050565b612c4d83612c18565b612c61612c5982612c3a565b848454612bbc565b825550505050565b600090565b612c76612c69565b612c81818484612c44565b505050565b5b81811015612ca557612c9a600082612c6e565b600181019050612c87565b5050565b601f821115612cea57612cbb81612b8a565b612cc484612b9f565b81016020851015612cd3578190505b612ce7612cdf85612b9f565b830182612c86565b50505b505050565b600082821c905092915050565b6000612d0d60001984600802612cef565b1980831691505092915050565b6000612d268383612cfc565b9150826002028217905092915050565b612d3f8261228d565b67ffffffffffffffff811115612d5857612d5761258a565b5b612d6282546128a4565b612d6d828285612ca9565b600060209050601f831160018114612da05760008415612d8e578287015190505b612d988582612d1a565b865550612e00565b601f198416612dae86612b8a565b60005b82811015612dd657848901518255600182019150602085019450602081019050612db1565b86831015612df35784890151612def601f891682612cfc565b8355505b6001600288020188555050505b505050505050565b6000612e138261233f565b9150612e1e8361233f565b9250828203905081811115612e3657612e356129d0565b5b92915050565b7f4e487b7100000000000000000000000000000000000000000000000000000000600052603160045260246000fd5b7f4e487b7100000000000000000000000000000000000000000000000000000000600052601260045260246000fdfea26469706673582212204ebe8c1352c69f9d3b45fd2971818daa372efd2fbcd792fe9e546cf78392a5ef64736f6c634300081b0033",
  "linkReferences": {},
  "deployedLinkReferences": {}
}