{
  "_format": "hh-sol-artifact-1",
  "contractName": "ElysiumTokenMarketplace",
  "sourceName": "contracts/ElysiumTokenMarketplace.sol",
  "abi": [
    {
      "inputs": [
        {
          "internalType": "uint256",
          "name": "platformFee",
          "type": "uint256"
        },
        {
          "internalType": "contract elysiumTokenFactoryInterface",
          "name": "elysiumTokenFactory",
          "type": "address"
        }
      ],
      "stateMutability": "nonpayable",
      "type": "constructor"
    },
    {
      "inputs": [
        {
          "internalType": "address",
          "name": "owner",
          "type": "address"
        }
      ],
      "name": "OwnableInvalidOwner",
      "type": "error"
    },
    {
      "inputs": [
        {
          "internalType": "address",
          "name": "account",
          "type": "address"
        }
      ],
      "name": "OwnableUnauthorizedAccount",
      "type": "error"
    },
    {
      "anonymous": false,
      "inputs": [
        {
          "indexed": true,
          "internalType": "address",
          "name": "token",
          "type": "address"
        },
        {
          "indexed": true,
          "internalType": "uint256",
          "name": "tokenId",
          "type": "uint256"
        },
        {
          "indexed": false,
          "internalType": "uint256",
          "name": "price",
          "type": "uint256"
        },
        {
          "indexed": false,
          "internalType": "address",
          "name": "seller",
          "type": "address"
        },
        {
          "indexed": true,
          "internalType": "address",
          "name": "buyer",
          "type": "address"
        }
      ],
      "name": "BoughtToken",
      "type": "event"
    },
    {
      "anonymous": false,
      "inputs": [
        {
          "indexed": true,
          "internalType": "address",
          "name": "token",
          "type": "address"
        },
        {
          "indexed": true,
          "internalType": "uint256",
          "name": "tokenId",
          "type": "uint256"
        },
        {
          "indexed": false,
          "internalType": "uint256",
          "name": "price",
          "type": "uint256"
        },
        {
          "indexed": true,
          "internalType": "address",
          "name": "seller",
          "type": "address"
        }
      ],
      "name": "ListedToken",
      "type": "event"
    },
    {
      "anonymous": false,
      "inputs": [
        {
          "indexed": true,
          "internalType": "address",
          "name": "previousOwner",
          "type": "address"
        },
        {
          "indexed": true,
          "internalType": "address",
          "name": "newOwner",
          "type": "address"
        }
      ],
      "name": "OwnershipTransferred",
      "type": "event"
    },
    {
      "inputs": [
        {
          "internalType": "address",
          "name": "collectionAddress",
          "type": "address"
        },
        {
          "internalType": "uint256",
          "name": "tokenId",
          "type": "uint256"
        }
      ],
      "name": "buyToken",
      "outputs": [],
      "stateMutability": "payable",
      "type": "function"
    },
    {
      "inputs": [
        {
          "internalType": "address[]",
          "name": "collectionAddresses",
          "type": "address[]"
        },
        {
          "internalType": "uint256[]",
          "name": "tokenIds",
          "type": "uint256[]"
        }
      ],
      "name": "buyTokens",
      "outputs": [],
      "stateMutability": "payable",
      "type": "function"
    },
    {
      "inputs": [
        {
          "internalType": "uint256",
          "name": "_royalty",
          "type": "uint256"
        },
        {
          "internalType": "uint256",
          "name": "price",
          "type": "uint256"
        }
      ],
      "name": "getCalculatedRoyalty",
      "outputs": [
        {
          "internalType": "uint256",
          "name": "",
          "type": "uint256"
        }
      ],
      "stateMutability": "pure",
      "type": "function"
    },
    {
      "inputs": [],
      "name": "getFeeRecipient",
      "outputs": [
        {
          "internalType": "address",
          "name": "",
          "type": "address"
        }
      ],
      "stateMutability": "view",
      "type": "function"
    },
    {
      "inputs": [
        {
          "internalType": "address",
          "name": "token",
          "type": "address"
        },
        {
          "internalType": "uint256",
          "name": "tokenId",
          "type": "uint256"
        }
      ],
      "name": "getListedToken",
      "outputs": [
        {
          "components": [
            {
              "internalType": "address",
              "name": "token",
              "type": "address"
            },
            {
              "internalType": "uint256",
              "name": "tokenId",
              "type": "uint256"
            },
            {
              "internalType": "address payable",
              "name": "seller",
              "type": "address"
            },
            {
              "internalType": "uint256",
              "name": "price",
              "type": "uint256"
            },
            {
              "internalType": "bool",
              "name": "sold",
              "type": "bool"
            }
          ],
          "internalType": "struct ElysiumTokenMarketplace.ListToken",
          "name": "",
          "type": "tuple"
        }
      ],
      "stateMutability": "view",
      "type": "function"
    },
    {
      "inputs": [],
      "name": "getPlatformFee",
      "outputs": [
        {
          "internalType": "uint256",
          "name": "",
          "type": "uint256"
        }
      ],
      "stateMutability": "view",
      "type": "function"
    },
    {
      "inputs": [
        {
          "internalType": "address",
          "name": "collectionAddress",
          "type": "address"
        },
        {
          "internalType": "uint256",
          "name": "tokenId",
          "type": "uint256"
        },
        {
          "internalType": "uint256",
          "name": "price",
          "type": "uint256"
        }
      ],
      "name": "listToken",
      "outputs": [],
      "stateMutability": "nonpayable",
      "type": "function"
    },
    {
      "inputs": [],
      "name": "owner",
      "outputs": [
        {
          "internalType": "address",
          "name": "",
          "type": "address"
        }
      ],
      "stateMutability": "view",
      "type": "function"
    },
    {
      "inputs": [],
      "name": "renounceOwnership",
      "outputs": [],
      "stateMutability": "nonpayable",
      "type": "function"
    },
    {
      "inputs": [
        {
          "internalType": "address",
          "name": "newOwner",
          "type": "address"
        }
      ],
      "name": "transferOwnership",
      "outputs": [],
      "stateMutability": "nonpayable",
      "type": "function"
    },
    {
      "inputs": [
        {
          "internalType": "address",
          "name": "collectionAddress",
          "type": "address"
        },
        {
          "internalType": "uint256",
          "name": "tokenId",
          "type": "uint256"
        }
      ],
      "name": "unlistToken",
      "outputs": [],
      "stateMutability": "nonpayable",
      "type": "function"
    },
    {
      "inputs": [
        {
          "internalType": "address",
          "name": "feeRecipient",
          "type": "address"
        }
      ],
      "name": "updateFeeRecipient",
      "outputs": [],
      "stateMutability": "nonpayable",
      "type": "function"
    },
    {
      "inputs": [
        {
          "internalType": "uint256",
          "name": "platformFee",
          "type": "uint256"
        }
      ],
      "name": "updatePlatformFee",
      "outputs": [],
      "stateMutability": "nonpayable",
      "type": "function"
    }
  ],
  "bytecode": "0x60a060405266038d7ea4c6800060015534801561001b57600080fd5b50604051612b5c380380612b5c833981810160405281019061003d91906102b2565b33600073ffffffffffffffffffffffffffffffffffffffff168173ffffffffffffffffffffffffffffffffffffffff16036100b05760006040517f1e4fbdf70000000000000000000000000000000000000000000000000000000081526004016100a79190610301565b60405180910390fd5b6100bf8161014360201b60201c565b508160018190555033600260006101000a81548173ffffffffffffffffffffffffffffffffffffffff021916908373ffffffffffffffffffffffffffffffffffffffff1602179055508073ffffffffffffffffffffffffffffffffffffffff1660808173ffffffffffffffffffffffffffffffffffffffff1681525050505061031c565b60008060009054906101000a900473ffffffffffffffffffffffffffffffffffffffff169050816000806101000a81548173ffffffffffffffffffffffffffffffffffffffff021916908373ffffffffffffffffffffffffffffffffffffffff1602179055508173ffffffffffffffffffffffffffffffffffffffff168173ffffffffffffffffffffffffffffffffffffffff167f8be0079c531659141344cd1fd0a4f28419497f9722a3daafe3b4186f6b6457e060405160405180910390a35050565b600080fd5b6000819050919050565b61021f8161020c565b811461022a57600080fd5b50565b60008151905061023c81610216565b92915050565b600073ffffffffffffffffffffffffffffffffffffffff82169050919050565b600061026d82610242565b9050919050565b600061027f82610262565b9050919050565b61028f81610274565b811461029a57600080fd5b50565b6000815190506102ac81610286565b92915050565b600080604083850312156102c9576102c8610207565b5b60006102d78582860161022d565b92505060206102e88582860161029d565b9150509250929050565b6102fb81610262565b82525050565b600060208201905061031660008301846102f2565b92915050565b608051612828610334600039600050506128286000f3fe6080604052600436106100c25760003560e01c80637e07590d1161007f5780639c1c7774116100595780639c1c777414610247578063aa0b598814610263578063f160d3691461028c578063f2fde38b146102b5576100c2565b80637e07590d146101b657806382de5c6f146101df5780638da5cb5b1461021c576100c2565b80631791154f146100c75780634af883c4146100f05780634ccb20c01461012d57806368f8fc10146101585780636ea8bc1014610174578063715018a61461019f575b600080fd5b3480156100d357600080fd5b506100ee60048036038101906100e99190611cf2565b6102de565b005b3480156100fc57600080fd5b5061011760048036038101906101129190611d32565b610784565b6040516101249190611d81565b60405180910390f35b34801561013957600080fd5b506101426107a7565b60405161014f9190611dab565b60405180910390f35b610172600480360381019061016d9190611cf2565b6107d1565b005b34801561018057600080fd5b50610189610e1a565b6040516101969190611d81565b60405180910390f35b3480156101ab57600080fd5b506101b4610e24565b005b3480156101c257600080fd5b506101dd60048036038101906101d89190611dc6565b610e38565b005b3480156101eb57600080fd5b5061020660048036038101906102019190611cf2565b6111ae565b6040516102139190611edb565b60405180910390f35b34801561022857600080fd5b506102316112f4565b60405161023e9190611dab565b60405180910390f35b610261600480360381019061025c9190612112565b61131d565b005b34801561026f57600080fd5b5061028a6004803603810190610285919061218a565b611903565b005b34801561029857600080fd5b506102b360048036038101906102ae91906121b7565b611959565b005b3480156102c157600080fd5b506102dc60048036038101906102d791906121b7565b611a14565b005b81816000600360008473ffffffffffffffffffffffffffffffffffffffff1673ffffffffffffffffffffffffffffffffffffffff16815260200190815260200160002060008381526020019081526020016000206040518060a00160405290816000820160009054906101000a900473ffffffffffffffffffffffffffffffffffffffff1673ffffffffffffffffffffffffffffffffffffffff1673ffffffffffffffffffffffffffffffffffffffff168152602001600182015481526020016002820160009054906101000a900473ffffffffffffffffffffffffffffffffffffffff1673ffffffffffffffffffffffffffffffffffffffff1673ffffffffffffffffffffffffffffffffffffffff168152602001600382015481526020016004820160009054906101000a900460ff1615151515815250509050600073ffffffffffffffffffffffffffffffffffffffff16816040015173ffffffffffffffffffffffffffffffffffffffff161415801561045d57508060800151155b61049c576040517f08c379a000000000000000000000000000000000000000000000000000000000815260040161049390612241565b60405180910390fd5b6000600360008773ffffffffffffffffffffffffffffffffffffffff1673ffffffffffffffffffffffffffffffffffffffff16815260200190815260200160002060008681526020019081526020016000206040518060a00160405290816000820160009054906101000a900473ffffffffffffffffffffffffffffffffffffffff1673ffffffffffffffffffffffffffffffffffffffff1673ffffffffffffffffffffffffffffffffffffffff168152602001600182015481526020016002820160009054906101000a900473ffffffffffffffffffffffffffffffffffffffff1673ffffffffffffffffffffffffffffffffffffffff1673ffffffffffffffffffffffffffffffffffffffff168152602001600382015481526020016004820160009054906101000a900460ff16151515158152505090503373ffffffffffffffffffffffffffffffffffffffff16816040015173ffffffffffffffffffffffffffffffffffffffff1614610648576040517f08c379a000000000000000000000000000000000000000000000000000000000815260040161063f906122ad565b60405180910390fd5b8573ffffffffffffffffffffffffffffffffffffffff166323b872dd3033886040518463ffffffff1660e01b8152600401610685939291906122cd565b600060405180830381600087803b15801561069f57600080fd5b505af11580156106b3573d6000803e3d6000fd5b50505050600360008773ffffffffffffffffffffffffffffffffffffffff1673ffffffffffffffffffffffffffffffffffffffff1681526020019081526020016000206000868152602001908152602001600020600080820160006101000a81549073ffffffffffffffffffffffffffffffffffffffff021916905560018201600090556002820160006101000a81549073ffffffffffffffffffffffffffffffffffffffff021916905560038201600090556004820160006101000a81549060ff02191690555050505050505050565b600061271083836107959190612333565b61079f91906123a4565b905092915050565b6000600260009054906101000a900473ffffffffffffffffffffffffffffffffffffffff16905090565b81816000600360008473ffffffffffffffffffffffffffffffffffffffff1673ffffffffffffffffffffffffffffffffffffffff16815260200190815260200160002060008381526020019081526020016000206040518060a00160405290816000820160009054906101000a900473ffffffffffffffffffffffffffffffffffffffff1673ffffffffffffffffffffffffffffffffffffffff1673ffffffffffffffffffffffffffffffffffffffff168152602001600182015481526020016002820160009054906101000a900473ffffffffffffffffffffffffffffffffffffffff1673ffffffffffffffffffffffffffffffffffffffff1673ffffffffffffffffffffffffffffffffffffffff168152602001600382015481526020016004820160009054906101000a900460ff1615151515815250509050600073ffffffffffffffffffffffffffffffffffffffff16816040015173ffffffffffffffffffffffffffffffffffffffff161415801561095057508060800151155b61098f576040517f08c379a000000000000000000000000000000000000000000000000000000000815260040161098690612241565b60405180910390fd5b6000600360008773ffffffffffffffffffffffffffffffffffffffff1673ffffffffffffffffffffffffffffffffffffffff168152602001908152602001600020600086815260200190815260200160002090508060030154341015610a2a576040517f08c379a0000000000000000000000000000000000000000000000000000000008152600401610a2190612421565b60405180910390fd5b60018160040160006101000a81548160ff021916908315150217905550600034905060008260000160009054906101000a900473ffffffffffffffffffffffffffffffffffffffff16905060008173ffffffffffffffffffffffffffffffffffffffff166395edc18c6040518163ffffffff1660e01b8152600401602060405180830381865afa158015610ac2573d6000803e3d6000fd5b505050506040513d601f19601f82011682018060405250810190610ae69190612456565b905060008273ffffffffffffffffffffffffffffffffffffffff16634d47732a6040518163ffffffff1660e01b8152600401602060405180830381865afa158015610b35573d6000803e3d6000fd5b505050506040513d601f19601f82011682018060405250810190610b599190612498565b90506000811115610bcd576000610b74828760030154610784565b90508273ffffffffffffffffffffffffffffffffffffffff166108fc829081150290604051600060405180830381858888f19350505050158015610bbc573d6000803e3d6000fd5b508085610bc991906124c5565b9450505b60006001541115610c5457600260009054906101000a900473ffffffffffffffffffffffffffffffffffffffff1673ffffffffffffffffffffffffffffffffffffffff166108fc6001549081150290604051600060405180830381858888f19350505050158015610c42573d6000803e3d6000fd5b5060015484610c5191906124c5565b93505b8460020160009054906101000a900473ffffffffffffffffffffffffffffffffffffffff1673ffffffffffffffffffffffffffffffffffffffff166108fc859081150290604051600060405180830381858888f19350505050158015610cbe573d6000803e3d6000fd5b508460000160009054906101000a900473ffffffffffffffffffffffffffffffffffffffff1673ffffffffffffffffffffffffffffffffffffffff166342842e0e303388600101546040518463ffffffff1660e01b8152600401610d24939291906122cd565b600060405180830381600087803b158015610d3e57600080fd5b505af1158015610d52573d6000803e3d6000fd5b505050503373ffffffffffffffffffffffffffffffffffffffff1685600101548660000160009054906101000a900473ffffffffffffffffffffffffffffffffffffffff1673ffffffffffffffffffffffffffffffffffffffff167f253c870a265b8a059586bf62c2a79dfd6880596cbf31db2e6a5a64043b85b66988600301548960020160009054906101000a900473ffffffffffffffffffffffffffffffffffffffff16604051610e06929190612558565b60405180910390a450505050505050505050565b6000600154905090565b610e2c611a9a565b610e366000611b21565b565b60008390503373ffffffffffffffffffffffffffffffffffffffff168173ffffffffffffffffffffffffffffffffffffffff16636352211e856040518263ffffffff1660e01b8152600401610e8d9190611d81565b602060405180830381865afa158015610eaa573d6000803e3d6000fd5b505050506040513d601f19601f82011682018060405250810190610ece9190612456565b73ffffffffffffffffffffffffffffffffffffffff1614610f24576040517f08c379a0000000000000000000000000000000000000000000000000000000008152600401610f1b906122ad565b60405180910390fd5b6001548211610f68576040517f08c379a0000000000000000000000000000000000000000000000000000000008152600401610f5f906125f3565b60405180910390fd5b8073ffffffffffffffffffffffffffffffffffffffff166323b872dd3330866040518463ffffffff1660e01b8152600401610fa5939291906122cd565b600060405180830381600087803b158015610fbf57600080fd5b505af1158015610fd3573d6000803e3d6000fd5b505050506040518060a001604052808573ffffffffffffffffffffffffffffffffffffffff1681526020018481526020013373ffffffffffffffffffffffffffffffffffffffff16815260200183815260200160001515815250600360008673ffffffffffffffffffffffffffffffffffffffff1673ffffffffffffffffffffffffffffffffffffffff168152602001908152602001600020600085815260200190815260200160002060008201518160000160006101000a81548173ffffffffffffffffffffffffffffffffffffffff021916908373ffffffffffffffffffffffffffffffffffffffff1602179055506020820151816001015560408201518160020160006101000a81548173ffffffffffffffffffffffffffffffffffffffff021916908373ffffffffffffffffffffffffffffffffffffffff1602179055506060820151816003015560808201518160040160006101000a81548160ff0219169083151502179055509050503373ffffffffffffffffffffffffffffffffffffffff16838573ffffffffffffffffffffffffffffffffffffffff167f965d8c836f0f823792df88358eaba98a10208f469df05e33efa8f92e772fa3fa856040516111a09190611d81565b60405180910390a450505050565b6111b6611bed565b600360008473ffffffffffffffffffffffffffffffffffffffff1673ffffffffffffffffffffffffffffffffffffffff16815260200190815260200160002060008381526020019081526020016000206040518060a00160405290816000820160009054906101000a900473ffffffffffffffffffffffffffffffffffffffff1673ffffffffffffffffffffffffffffffffffffffff1673ffffffffffffffffffffffffffffffffffffffff168152602001600182015481526020016002820160009054906101000a900473ffffffffffffffffffffffffffffffffffffffff1673ffffffffffffffffffffffffffffffffffffffff1673ffffffffffffffffffffffffffffffffffffffff168152602001600382015481526020016004820160009054906101000a900460ff161515151581525050905092915050565b60008060009054906101000a900473ffffffffffffffffffffffffffffffffffffffff16905090565b600034905060005b83518110156118ac5760006003600086848151811061134757611346612613565b5b602002602001015173ffffffffffffffffffffffffffffffffffffffff1673ffffffffffffffffffffffffffffffffffffffff168152602001908152602001600020600085848151811061139e5761139d612613565b5b6020026020010151815260200190815260200160002090508060040160009054906101000a900460ff161580156114265750600073ffffffffffffffffffffffffffffffffffffffff168160020160009054906101000a900473ffffffffffffffffffffffffffffffffffffffff1673ffffffffffffffffffffffffffffffffffffffff1614155b611465576040517f08c379a000000000000000000000000000000000000000000000000000000000815260040161145c9061268e565b60405180910390fd5b80600301548310156114ac576040517f08c379a00000000000000000000000000000000000000000000000000000000081526004016114a3906126fa565b60405180910390fd5b60008160030154905060018260040160006101000a81548160ff02191690831515021790555060008260000160009054906101000a900473ffffffffffffffffffffffffffffffffffffffff16905060006115798273ffffffffffffffffffffffffffffffffffffffff16634d47732a6040518163ffffffff1660e01b8152600401602060405180830381865afa15801561154b573d6000803e3d6000fd5b505050506040513d601f19601f8201168201806040525081019061156f9190612498565b8560030154610784565b90506000811115611648578173ffffffffffffffffffffffffffffffffffffffff166395edc18c6040518163ffffffff1660e01b8152600401602060405180830381865afa1580156115cf573d6000803e3d6000fd5b505050506040513d601f19601f820116820180604052508101906115f39190612456565b73ffffffffffffffffffffffffffffffffffffffff166108fc829081150290604051600060405180830381858888f19350505050158015611638573d6000803e3d6000fd5b50808361164591906124c5565b92505b600060015411156116cf57600260009054906101000a900473ffffffffffffffffffffffffffffffffffffffff1673ffffffffffffffffffffffffffffffffffffffff166108fc6001549081150290604051600060405180830381858888f193505050501580156116bd573d6000803e3d6000fd5b50600154836116cc91906124c5565b92505b8360020160009054906101000a900473ffffffffffffffffffffffffffffffffffffffff1673ffffffffffffffffffffffffffffffffffffffff166108fc849081150290604051600060405180830381858888f19350505050158015611739573d6000803e3d6000fd5b508360000160009054906101000a900473ffffffffffffffffffffffffffffffffffffffff1673ffffffffffffffffffffffffffffffffffffffff166342842e0e303387600101546040518463ffffffff1660e01b815260040161179f939291906122cd565b600060405180830381600087803b1580156117b957600080fd5b505af11580156117cd573d6000803e3d6000fd5b505050503373ffffffffffffffffffffffffffffffffffffffff1684600101548560000160009054906101000a900473ffffffffffffffffffffffffffffffffffffffff1673ffffffffffffffffffffffffffffffffffffffff167f253c870a265b8a059586bf62c2a79dfd6880596cbf31db2e6a5a64043b85b66987600301548860020160009054906101000a900473ffffffffffffffffffffffffffffffffffffffff16604051611881929190612558565b60405180910390a483600301548661189991906124c5565b9550505050508080600101915050611325565b5060008111156118fe573373ffffffffffffffffffffffffffffffffffffffff166108fc829081150290604051600060405180830381858888f193505050501580156118fc573d6000803e3d6000fd5b505b505050565b61190b611a9a565b600081101561194f576040517f08c379a000000000000000000000000000000000000000000000000000000000815260040161194690612766565b60405180910390fd5b8060018190555050565b611961611a9a565b600073ffffffffffffffffffffffffffffffffffffffff168173ffffffffffffffffffffffffffffffffffffffff16036119d0576040517f08c379a00000000000000000000000000000000000000000000000000000000081526004016119c7906127d2565b60405180910390fd5b80600260006101000a81548173ffffffffffffffffffffffffffffffffffffffff021916908373ffffffffffffffffffffffffffffffffffffffff16021790555050565b611a1c611a9a565b600073ffffffffffffffffffffffffffffffffffffffff168173ffffffffffffffffffffffffffffffffffffffff1603611a8e5760006040517f1e4fbdf7000000000000000000000000000000000000000000000000000000008152600401611a859190611dab565b60405180910390fd5b611a9781611b21565b50565b611aa2611be5565b73ffffffffffffffffffffffffffffffffffffffff16611ac06112f4565b73ffffffffffffffffffffffffffffffffffffffff1614611b1f57611ae3611be5565b6040517f118cdaa7000000000000000000000000000000000000000000000000000000008152600401611b169190611dab565b60405180910390fd5b565b60008060009054906101000a900473ffffffffffffffffffffffffffffffffffffffff169050816000806101000a81548173ffffffffffffffffffffffffffffffffffffffff021916908373ffffffffffffffffffffffffffffffffffffffff1602179055508173ffffffffffffffffffffffffffffffffffffffff168173ffffffffffffffffffffffffffffffffffffffff167f8be0079c531659141344cd1fd0a4f28419497f9722a3daafe3b4186f6b6457e060405160405180910390a35050565b600033905090565b6040518060a00160405280600073ffffffffffffffffffffffffffffffffffffffff16815260200160008152602001600073ffffffffffffffffffffffffffffffffffffffff168152602001600081526020016000151581525090565b6000604051905090565b600080fd5b600080fd5b600073ffffffffffffffffffffffffffffffffffffffff82169050919050565b6000611c8982611c5e565b9050919050565b611c9981611c7e565b8114611ca457600080fd5b50565b600081359050611cb681611c90565b92915050565b6000819050919050565b611ccf81611cbc565b8114611cda57600080fd5b50565b600081359050611cec81611cc6565b92915050565b60008060408385031215611d0957611d08611c54565b5b6000611d1785828601611ca7565b9250506020611d2885828601611cdd565b9150509250929050565b60008060408385031215611d4957611d48611c54565b5b6000611d5785828601611cdd565b9250506020611d6885828601611cdd565b9150509250929050565b611d7b81611cbc565b82525050565b6000602082019050611d966000830184611d72565b92915050565b611da581611c7e565b82525050565b6000602082019050611dc06000830184611d9c565b92915050565b600080600060608486031215611ddf57611dde611c54565b5b6000611ded86828701611ca7565b9350506020611dfe86828701611cdd565b9250506040611e0f86828701611cdd565b9150509250925092565b611e2281611c7e565b82525050565b611e3181611cbc565b82525050565b6000611e4282611c5e565b9050919050565b611e5281611e37565b82525050565b60008115159050919050565b611e6d81611e58565b82525050565b60a082016000820151611e896000850182611e19565b506020820151611e9c6020850182611e28565b506040820151611eaf6040850182611e49565b506060820151611ec26060850182611e28565b506080820151611ed56080850182611e64565b50505050565b600060a082019050611ef06000830184611e73565b92915050565b600080fd5b6000601f19601f8301169050919050565b7f4e487b7100000000000000000000000000000000000000000000000000000000600052604160045260246000fd5b611f4482611efb565b810181811067ffffffffffffffff82111715611f6357611f62611f0c565b5b80604052505050565b6000611f76611c4a565b9050611f828282611f3b565b919050565b600067ffffffffffffffff821115611fa257611fa1611f0c565b5b602082029050602081019050919050565b600080fd5b6000611fcb611fc684611f87565b611f6c565b90508083825260208201905060208402830185811115611fee57611fed611fb3565b5b835b8181101561201757806120038882611ca7565b845260208401935050602081019050611ff0565b5050509392505050565b600082601f83011261203657612035611ef6565b5b8135612046848260208601611fb8565b91505092915050565b600067ffffffffffffffff82111561206a57612069611f0c565b5b602082029050602081019050919050565b600061208e6120898461204f565b611f6c565b905080838252602082019050602084028301858111156120b1576120b0611fb3565b5b835b818110156120da57806120c68882611cdd565b8452602084019350506020810190506120b3565b5050509392505050565b600082601f8301126120f9576120f8611ef6565b5b813561210984826020860161207b565b91505092915050565b6000806040838503121561212957612128611c54565b5b600083013567ffffffffffffffff81111561214757612146611c59565b5b61215385828601612021565b925050602083013567ffffffffffffffff81111561217457612173611c59565b5b612180858286016120e4565b9150509250929050565b6000602082840312156121a05761219f611c54565b5b60006121ae84828501611cdd565b91505092915050565b6000602082840312156121cd576121cc611c54565b5b60006121db84828501611ca7565b91505092915050565b600082825260208201905092915050565b7f6e6f74206c697374656400000000000000000000000000000000000000000000600082015250565b600061222b600a836121e4565b9150612236826121f5565b602082019050919050565b6000602082019050818103600083015261225a8161221e565b9050919050565b7f6e6f7420746f6b656e206f776e65720000000000000000000000000000000000600082015250565b6000612297600f836121e4565b91506122a282612261565b602082019050919050565b600060208201905081810360008301526122c68161228a565b9050919050565b60006060820190506122e26000830186611d9c565b6122ef6020830185611d9c565b6122fc6040830184611d72565b949350505050565b7f4e487b7100000000000000000000000000000000000000000000000000000000600052601160045260246000fd5b600061233e82611cbc565b915061234983611cbc565b925082820261235781611cbc565b9150828204841483151761236e5761236d612304565b5b5092915050565b7f4e487b7100000000000000000000000000000000000000000000000000000000600052601260045260246000fd5b60006123af82611cbc565b91506123ba83611cbc565b9250826123ca576123c9612375565b5b828204905092915050565b7f696e73756666696369656e74207061796d656e74000000000000000000000000600082015250565b600061240b6014836121e4565b9150612416826123d5565b602082019050919050565b6000602082019050818103600083015261243a816123fe565b9050919050565b60008151905061245081611c90565b92915050565b60006020828403121561246c5761246b611c54565b5b600061247a84828501612441565b91505092915050565b60008151905061249281611cc6565b92915050565b6000602082840312156124ae576124ad611c54565b5b60006124bc84828501612483565b91505092915050565b60006124d082611cbc565b91506124db83611cbc565b92508282039050818111156124f3576124f2612304565b5b92915050565b6000819050919050565b600061251e61251961251484611c5e565b6124f9565b611c5e565b9050919050565b600061253082612503565b9050919050565b600061254282612525565b9050919050565b61255281612537565b82525050565b600060408201905061256d6000830185611d72565b61257a6020830184612549565b9392505050565b7f7072696365206d7573742062652067726561746572207468616e20706c61746660008201527f6f726d2066656500000000000000000000000000000000000000000000000000602082015250565b60006125dd6027836121e4565b91506125e882612581565b604082019050919050565b6000602082019050818103600083015261260c816125d0565b9050919050565b7f4e487b7100000000000000000000000000000000000000000000000000000000600052603260045260246000fd5b7f546f6b656e206e6f7420617661696c61626c6500000000000000000000000000600082015250565b60006126786013836121e4565b915061268382612642565b602082019050919050565b600060208201905081810360008301526126a78161266b565b9050919050565b7f496e73756666696369656e74207061796d656e74000000000000000000000000600082015250565b60006126e46014836121e4565b91506126ef826126ae565b602082019050919050565b60006020820190508181036000830152612713816126d7565b9050919050565b7f63616e6e6f74206265206e656761746976650000000000000000000000000000600082015250565b60006127506012836121e4565b915061275b8261271a565b602082019050919050565b6000602082019050818103600083015261277f81612743565b9050919050565b7f63616e2774206265203020616464726573730000000000000000000000000000600082015250565b60006127bc6012836121e4565b91506127c782612786565b602082019050919050565b600060208201905081810360008301526127eb816127af565b905091905056fea26469706673582212207bf887de2bf0b9e505284c08d9d4a934dfe37bf767f21fa12d5da71ab75983ea64736f6c634300081b0033",
  "linkReferences": {},
  "deployedLinkReferences": {}
}